:0600000002001E02008553
:0300130002008E5A
:03000B000200D11F
:10001B000200977530F87531897532F975335A7559
:10002B0034FA7535137536FA7537687538FB7539CB
:10003B0004753AFB753B90753CFC753D0C753EFCAD
:10004B00753F4575891185308C85318AC28DD28C6F
:10005B00D2A9758D3C758BB0C28FD28ED2ABD2AA82
:10006B00D2A8D288D28AD2AF783079317C0AECFA16
:10007B007B08ECB428027C2880F8EC240250027434
:10008B0028FC32EC940250027401FC32C28FC28EF7
:10009B00758D3C758BB0D28EDA07ECFA30A7031155
:1000AB00B13211C180FB0808E8F909DB08B2A77B64
:1000BB0008783E793F221818E8F909DB08B2A77BCC
:1000CB00087830793122C28DC28C868C878AB2A196
:0300DB00D28C3292
:00000001FF
