:03000000020100FA
:100100001201EB12020212018A74D01201C3120111
:10011000B474021201C31201B412018A74D1120123
:10012000C31201B41201CF120193F9120208782D03
:1001300012021C12018A74D01201C31201B474009D
:100140001201C31201B412018A74D11201C3120147
:10015000B41201CF120193F9120208782D12021C79
:1001600012018A74D01201C31201B474011201C3C6
:100170001201B412018A74D11201C31201B4120126
:10018000CF120193F91202082103D290D291C291A9
:10019000C29022C291D290221201DDD2901201DDD2
:1001A000C2901201DD22D291D290C29022C291D28D
:1001B00090C29022D290209105C2920201C0D292A8
:1001C000C290227808339291319818B800F72278BB
:1001D000087400A29133319818B800F7227E0A7F84
:1001E0000A1E00BE00FB1FBF00F7227923783812D9
:1001F00002207806120220780C12022078011202E6
:100200002022780112022022E975F010842430F8AF
:10021000120231E5F02430F81202312212023122AA
:10022000C2A6D2A788B0120242C2A7D2A712024227
:1002300022D2A6D2A788B0120242C2A7D2A7120227
:1002400042227E377F371E00BE00FB1FBF00F72211
:00000001FF
