:020000040000FA
:100000000C9435000C945D000C945D000C945D0024
:100010000C945D000C945D000C945D000C945D00EC
:100020000C945D000C945D000C945D000C945D00DC
:100030000C945D000C945D000C945D000C945D00CC
:100040000C949E010C945D000C940E020C94E8013B
:100050000C945D000C945D000C945D000C945D00AC
:100060000C945D000C945D00660311241FBECFEF5D
:10007000D8E0DEBFCDBF11E0A0E0B1E0ECEDF9E0EB
:1000800002C005900D92A632B107D9F721E0A6E291
:10009000B1E001C01D92AC3CB207E1F710E0C5E34E
:1000A000D0E004C02197FE010E94E604C433D107CA
:1000B000C9F70E9440020C94EC040C9400003FB776
:1000C000F89480912B0190912C01A0912D01B09179
:1000D0002E0126B5A89B05C02F3F19F00196A11D42
:1000E000B11D3FBFBA2FA92F982F8827BC01CD0182
:1000F000620F711D811D911D42E0660F771F881FE1
:10010000991F4A95D1F70895AF92BF92CF92DF928F
:10011000EF92FF920F931F93CF93DF936C017B01BC
:100120008B01040F151FEB015E01AE18BF08C0174D
:10013000D10759F06991D601ED91FC910190F081C0
:10014000E02DC6010995892B79F7C501DF91CF9183
:100150001F910F91FF90EF90DF90CF90BF90AF90E5
:100160000895FC01538D448D252F30E0842F90E0BD
:10017000821B930B541710F0CF96089501970895A2
:10018000FC01918D828D981761F0A28DAE0FBF2F6B
:10019000B11D5D968C91928D9F5F9F73928F90E0C1
:1001A00008958FEF9FEF0895FC01918D828D981730
:1001B00031F0828DE80FF11D858D90E008958FEF6D
:1001C0009FEF0895FC01918D228D892F90E0805C36
:1001D0009F4F821B91098F73992708958FE291E0B9
:1001E0000E94E20021E0892B09F420E0822F08958B
:1001F00080E090E0892B29F00E94EE0081110C94A0
:1002000000000895FC01A48DA80FB92FB11DA35AB9
:10021000BF4F2C91848D90E001968F739927848F26
:10022000A689B7892C93A089B1898C918370806449
:100230008C93938D848D981306C00288F389E02DEA
:1002400080818F7D80830895EF92FF920F931F939B
:10025000CF93DF93EC0181E0888F9B8D8C8D981379
:100260001AC0E889F989808185FF15C09FB7F89485
:10027000EE89FF896083E889F989808183708064D1
:1002800080839FBF81E090E0DF91CF911F910F911C
:10029000FF90EF900895F62E0B8D10E00F5F1F4F2B
:1002A0000F731127E02E8C8D8E110CC00FB607FC3A
:1002B000FACFE889F989808185FFF5CFCE010E94C8
:1002C0000201F1CFEB8DEC0FFD2FF11DE35AFF4F33
:1002D000F0829FB7F8940B8FEA89FB898081806256
:1002E000CFCFCF93DF93EC01888D8823B9F0AA8913
:1002F000BB89E889F9898C9185FD03C0808186FDE1
:100300000DC00FB607FCF7CF8C9185FFF2CF80812F
:1003100085FFEDCFCE010E940201E9CFDF91CF91A1
:100320000895FC0101900020E9F73197AF01481BC7
:10033000590BBC018FE291E00C9484001F920F9244
:100340000FB60F9211242F933F938F939F93AF93E8
:10035000BF938091270190912801A0912901B0912C
:100360002A013091260123E0230F2D3758F50196FD
:10037000A11DB11D20932601809327019093280190
:10038000A0932901B0932A0180912B0190912C0117
:10039000A0912D01B0912E010196A11DB11D809358
:1003A0002B0190932C01A0932D01B0932E01BF91AE
:1003B000AF919F918F913F912F910F900FBE0F9012
:1003C0001F90189526E8230F0296A11DB11DD2CFCC
:1003D0001F920F920FB60F9211242F933F934F93BA
:1003E0005F936F937F938F939F93AF93BF93EF939D
:1003F000FF938FE291E00E940201FF91EF91BF9184
:10040000AF919F918F917F916F915F914F913F91AC
:100410002F910F900FBE0F901F9018951F920F9263
:100420000FB60F9211242F938F939F93EF93FF9307
:10043000E0913F01F09140018081E0914501F09110
:10044000460182FD1BC09081809148018F5F8F73B0
:1004500020914901821741F0E0914801F0E0E15D0F
:10046000FE4F958F80934801FF91EF919F918F915F
:100470002F910F900FBE0F901F9018958081F4CF91
:10048000CF93DF93CDB7DEB7A1970FB6F894DEBF59
:100490000FBECDBF789484B5826084BD84B5816081
:1004A00084BD85B5826085BD85B5816085BD80913F
:1004B0006E00816080936E001092810080918100B7
:1004C00082608093810080918100816080938100AF
:1004D000809180008160809380008091B100846071
:1004E0008093B1008091B00081608093B0008091D2
:1004F0007A00846080937A0080917A008260809391
:100500007A0080917A00816080937A0080917A00ED
:10051000806880937A001092C100E0913F01F091D1
:10052000400182E08083E0913B01F0913C01108228
:10053000E0913D01F0913E018FEC808310924701E4
:10054000E0914301F091440186E08083E091410114
:10055000F0914201808180618083E0914101F091BE
:100560004201808188608083E0914101F0914201E5
:10057000808180688083E0914101F0914201808117
:100580008F7D808390E4392E2AE0822E912CA12C3D
:10059000B12C00E010E030927C0080917A00806401
:1005A00080937A0080917A0086FDFCCF609178007C
:1005B00070917900072E000C880B990B0E94CB03D9
:1005C00020E030E04AEF5EE30E942F040E94930394
:1005D0006B0182E191E00E9491010D2C000CEE086C
:1005E000FF08F7FE5DC06DE28FE291E00E942401FA
:1005F00022273327A9012C193D094E095F0919A2A9
:10060000CE0181967C01CA01B901A50194010E9425
:10061000C404605DF70162937F0121153105410536
:10062000510589F7E114F10419F0C7010E94910105
:1006300080E291E00E94910182E291E00E949101AA
:100640000E945F002B013C0184E6C82ED12CE12CD6
:10065000F12C0E945F006419750986099709683EAC
:10066000734081059105A8F3F1E0CF1AD108E108A4
:10067000F10828EE420E23E0521E611C711CC114C9
:10068000D104E104F10429F70115110509F483CF20
:100690000E94EE00882309F47ECF0E9400007BCFE9
:1006A000A701960119A2CE0181967C01CA01B90168
:1006B000A50194010E94C404605DF70162937F016B
:1006C000211531054105510589F7ACCFEFE2F1E085
:1006D0001382128288EE93E0A0E0B0E084839583D9
:1006E000A683B78384E091E09183808385EC90E0DA
:1006F0009587848784EC90E09787868780EC90E0EC
:10070000918B808B81EC90E0938B828B82EC90E0DC
:10071000958B848B86EC90E0978B868B118E128E56
:10072000138E148E08950E949A036894B1110C944C
:10073000290408950E940E0488F09F5798F0B92F5D
:100740009927B751B0F0E1F0660F771F881F991F06
:100750001AF0BA95C9F714C0B13091F00E9428047C
:10076000B1E008950C942804672F782F8827B85F8C
:1007700039F0B93FCCF3869577956795B395D9F75E
:100780003EF490958095709561957F4F8F4F9F4F68
:100790000895E89409C097FB3EF490958095709574
:1007A00061957F4F8F4F9F4F9923A9F0F92F96E9BD
:1007B000BB279395F695879577956795B795F11132
:1007C000F8CFFAF4BB0F11F460FF1BC06F5F7F4FCF
:1007D0008F4F9F4F16C0882311F096E911C07723E1
:1007E00021F09EE8872F762F05C0662371F096E8EA
:1007F000862F70E060E02AF09A95660F771F881FB9
:10080000DAF7880F9695879597F9089557FD9058D0
:10081000440F551F59F05F3F71F04795880F97FBC4
:10082000991F61F09F3F79F087950895121613067E
:100830001406551FF2CF4695F1DF08C016161706AD
:100840001806991FF1CF86957105610508940895E2
:10085000E894BB2766277727CB0197F908950E9474
:1008600042040C94B3040E94A50438F00E94AC0426
:1008700020F0952311F00C949C040C94A2041124F4
:100880000C9429040E94060470F3959FC1F3950F00
:1008900050E0551F629FF001729FBB27F00DB11D04
:1008A000639FAA27F00DB11DAA1F649F6627B00D94
:1008B000A11D661F829F2227B00DA11D621F739F7D
:1008C000B00DA11D621F839FA00D611D221F749F8B
:1008D0003327A00D611D231F849F600D211D822FD2
:1008E000762F6A2F11249F5750409AF0F1F08823F9
:1008F0004AF0EE0FFF1FBB1F661F771F881F915026
:100900005040A9F79E3F510580F00C949C040C9434
:1009100029045F3FE4F3983ED4F386957795679575
:10092000B795F795E7959F5FC1F7FE2B880F911D4F
:100930009695879597F9089597F99F6780E870E0F5
:1009400060E008959FEF80EC089500240A94161645
:10095000170618060906089500240A9412161306AD
:10096000140605060895092E0394000C11F488233B
:1009700052F0BB0F40F4BF2B11F460FF04C06F5F57
:100980007F4F8F4F9F4F0895A1E21A2EAA1BBB1BCA
:10099000FD010DC0AA1FBB1FEE1FFF1FA217B3074B
:1009A000E407F50720F0A21BB30BE40BF50B661F61
:1009B000771F881F991F1A9469F760957095809525
:1009C00090959B01AC01BD01CF010895EE0FFF1F73
:1009D0000590F491E02D0994F894FFCF00000000F9
:1009E00024018400B1007101E200C000D40054650C
:1009F0006D70657261747572203A200043000D0AB3
:020A00000000F4
:107E0000112484B714BE81FFF0D085E080938100F7
:107E100082E08093C00088E18093C10086E0809377
:107E2000C20080E18093C4008EE0C9D0259A86E02C
:107E300020E33CEF91E0309385002093840096BBD3
:107E4000B09BFECF1D9AA8958150A9F7CC24DD24C4
:107E500088248394B5E0AB2EA1E19A2EF3E0BF2EE7
:107E6000A2D0813461F49FD0082FAFD0023811F036
:107E7000013811F484E001C083E08DD089C08234E0
:107E800011F484E103C0853419F485E0A6D080C0E4
:107E9000853579F488D0E82EFF2485D0082F10E0AE
:107EA000102F00270E291F29000F111F8ED06801E7
:107EB0006FC0863521F484E090D080E0DECF843638
:107EC00009F040C070D06FD0082F6DD080E0C81688
:107ED00080E7D80618F4F601B7BEE895C0E0D1E017
:107EE00062D089930C17E1F7F0E0CF16F0E7DF06D8
:107EF00018F0F601B7BEE89568D007B600FCFDCFD4
:107F0000A601A0E0B1E02C9130E011968C91119780
:107F100090E0982F8827822B932B1296FA010C0160
:107F200087BEE89511244E5F5F4FF1E0A038BF0790
:107F300051F7F601A7BEE89507B600FCFDCF97BE46
:107F4000E89526C08437B1F42ED02DD0F82E2BD052
:107F50003CD0F601EF2C8F010F5F1F4F84911BD097
:107F6000EA94F801C1F70894C11CD11CFA94CF0C13
:107F7000D11C0EC0853739F428D08EE10CD085E9AC
:107F80000AD08FE07ACF813511F488E018D01DD067
:107F900080E101D065CF982F8091C00085FFFCCF94
:107FA0009093C60008958091C00087FFFCCF809118
:107FB000C00084FD01C0A8958091C6000895E0E648
:107FC000F0E098E1908380830895EDDF803219F02E
:107FD00088E0F5DFFFCF84E1DECF1F93182FE3DFCA
:107FE0001150E9F7F2DF1F91089580E0E8DFEE27F6
:047FF000FF270994CA
:027FFE00040479
:00000001FF
