:100000000C945C000C947D010C9456010C947900C6
:100010000C9479000C9479000C9479000C9479007C
:100020000C9479000C9479000C9479000C9479006C
:100030000C9479000C9479000C9479000C9479005C
:100040000C940C010C9479000C9479000C947900B8
:100050000C9479000C9479000C9479000C9479003C
:100060000C9479000C947900000000080002010053
:100070000003040700000000000000000000000072
:10008000250028002B0000000000240027002A0083
:10009000040404040404040402020202020203032E
:1000A0000303030301020408102040800102040836
:1000B000102001020408102011241FBECFEFD8E049
:1000C000DEBFCDBF11E0A0E0B1E0E8E3F5E002C0A3
:1000D00005900D92A630B107D9F721E0A6E0B1E076
:1000E00001C01D92A031B207E1F70E94A4010C9457
:1000F0009A020C940000CF93DF9390E0FC01EC5542
:10010000FF4F249180579F4FFC0184918823D1F0A9
:1001100090E0880F991FFC01EA57FF4FA591B49119
:10012000FC01E458FF4FC591D491623071F49FB740
:10013000F8943C91822F809583238C93E8812E2B19
:1001400028839FBFDF91CF9108958FB7F894EC91EA
:100150002E2B2C938FBFF6CF3FB7F89480910C01D4
:1001600090910D01A0910E01B0910F0126B5A89BB1
:1001700005C02F3F19F00196A11DB11D3FBFBA2F39
:10018000A92F982F8827BC01CD01620F711D811DF9
:10019000911D42E0660F771F881F991F4A95D1F77E
:1001A000089580910401909105018C599F4F90937F
:1001B0000501809304018091040190910501893E1D
:1001C00093404CF4809104019091050190930501B6
:1001D00080930401089588EE93E0F8CF80910401A4
:1001E0009091050184569109909305018093040133
:1001F0008091040190910501853691054CF0809124
:1002000004019091050190930501809304010895E4
:1002100084E690E0F8CF08951F920F920FB60F92E8
:1002200011242F933F938F939F93AF93BF9380910C
:10023000080190910901A0910A01B0910B01309140
:10024000070123E0230F2D3758F50196A11DB11D9D
:10025000209307018093080190930901A0930A015C
:10026000B0930B0180910C0190910D01A0910E01B2
:10027000B0910F010196A11DB11D80930C019093C7
:100280000D01A0930E01B0930F01BF91AF919F910B
:100290008F913F912F910F900FBE0F901F90189547
:1002A00026E8230F0296A11DB11DD2CF1F920F92F7
:1002B0000FB60F9211242F933F934F935F936F9339
:1002C0007F938F939F93AF93BF93EF93FF93E091AF
:1002D0000201F09103010995FF91EF91BF91AF9158
:1002E0009F918F917F916F915F914F913F912F914E
:1002F0000F900FBE0F901F9018951F920F920FB680
:100300000F9211242F933F934F935F936F937F939B
:100310008F939F93AF93BF93EF93FF93E09100016F
:10032000F09101010995FF91EF91BF91AF919F91DC
:100330008F917F916F915F914F913F912F910F908E
:100340000FBE0F901F901895789484B5826084BD7D
:1003500084B5816084BD85B5826085BD85B58160C9
:1003600085BD80916E00816080936E001092810047
:100370008091810082608093810080918100816002
:1003800080938100809180008160809380008091C3
:10039000B10084608093B1008091B000816080934F
:1003A000B00080917A00846080937A0080917A0016
:1003B000826080937A0080917A00816080937A00D5
:1003C00080917A00806880937A001092C10061E089
:1003D0008DE00E947B0062E082E00E947B0081ED64
:1003E00090E09093010180930001809169008C7FDF
:1003F000826080936900E89A62E083E00E947B005B
:100400008EEE90E090930301809302018091690049
:10041000837F886080936900E99A3324339425E7C9
:10042000822E20E0922EC1EBD0E00DE910E030E00A
:10043000A32E30E0B32E2091060123252093060140
:10044000F4019491FE018491F80134913323F1F089
:10045000992359F0933009F44CC008F03FC0913013
:1004600009F44DC0923009F44EC0E32FF0E0EE0FD6
:10047000FF1FE458FF4FA591B4919FB7F894211145
:100480004FC02C91809582238C939FBFC090040114
:10049000D09005010D2C000CEE08FF080E94AC0066
:1004A0002B013C01C114D104E104F104E1F10E94EB
:1004B000AC006419750986099709683E7340810587
:1004C000910580F3F1E0CF1AD108E108F10828EE98
:1004D000420E23E0521E611C711CE4CF9730B1F034
:1004E0009830D1F0943009F0C0CF909180009F7D7A
:1004F00003C0909180009F7790938000B6CF94B511
:100500009F7794BDB2CF94B59F7DFBCF9091B00003
:100510009F779093B000A9CF9091B0009F7DF9CFC5
:100520002C91822BB1CFA114B10409F484CF0E9485
:08053000000081CFF894FFCF19
:060538000B010B01640041
:00000001FF
