:03000000020100FA
:100100001201DD12015F12016D74D2317D746B3109
:100110007D7400317D317412015F12016D74D23132
:100120007D741B317D7400317D317412015F1201C9
:100130006D74D2317D7443317D12016D74D3317D84
:1001400031A5319C3174F81201F21201B51201523D
:1001500080D97B027AFF79FFD9FEDAFADBF622D268
:1001600081D28022C280D281D280C28122D280C23A
:1001700081C28022C280C281D280D281227F08C205
:1001800080339281D280DFF7C280D281D280A28177
:10019000C28022C281D280C280D28122D281D2800A
:1001A000C280D280227F08C280D280A28133DFF752
:1001B000C280D28122E875F06484F9E5F075F00A16
:1001C00084FAABF0E92430F9EA2430FAEB2430FB6E
:1001D000E91201FDEA1201FDEB1201FD2274381251
:1001E00001F874061201F8740C1201F8740112017E
:1001F000F82274011201F822C2900201FFD290D2BB
:1002000091F5B012020EC291D29112020E227E0A14
:070210007F32DFFEDEFA225F
:00000001FF
